:100000000C9438000C9442000C9442000C94420072
:100010000C9442000C9442000C9442000C94420058
:100020000C9442000C9442000C9442000C94420048
:100030000C9442000C9442000C9442000C94420038
:100040000C9442000C9442000C9442000C94420028
:100050000C9442000C9442000C9442000C94420018
:100060000C9442000C9442000C9442000C94420008
:1000700011241FBECFEFD0E1DEBFCDBF0E944400F0
:100080000C944A000C9400008FEF84B986B18095DF
:0800900085B9FCCFF894FFCF05
:00000001FF